000000001                991525426203          000000000337153MARIO SAMUEL PEREZ POLANCO              001001
000000002                992936223958          000000000337153REINIER BALLESTER GOMEZ                 001001
000000003                992973594246          000000000298700HEIDY CAPOTE BOSCH                      001001
000000004                990472429594          000000000298700LAZARO ERNESTO MONTERO LEYVA            001001
000000005                991595961800          000000000298700JORGE LUIS TUN SANSORES                 001001
000000006                991589051223          000000000298700FRANK GARCIA ALBERT                     001001
000000007                991522049034          000000000298700OSWALDO DE JESUS SANCHEZ LEON           001001
000000008                991592886976          000000000298700JAVIER JESUS RIVERA MAY                 001001
000000009                991534382018          000000000298700JOSE ALEJANDRO HERNANDEZ GARCIA         001001
